:1000000010C02AC0D4C128C027C026C025C024C023
:1000100023C022C021C020C01FC01EC01DC01CC0E4
:100020001BC011241FBECFE5D1E0DEBFCDBF10E065
:10003000A0E6B0E0E2EAF4E002C005900D92A4363A
:10004000B107D9F710E0A4E6B0E001C01D92A936CF
:10005000B107E1F7E6D123C2D3CFFC01DA011C924C
:1000600080818623E9F78CE18A95F1F7000088E327
:100070008A95F1F700C08081862319F08C91816008
:100080008C9388E38A95F1F700C08081862319F06C
:100090008C9182608C9388E38A95F1F700C080810F
:1000A000862319F08C9184608C9388E38A95F1F70C
:1000B00000C08081862319F08C9188608C9388E33E
:1000C0008A95F1F700C08081862319F08C918061B8
:1000D0008C9388E38A95F1F700C08081862319F01C
:1000E0008C9180628C9388E38A95F1F700C08081BF
:1000F000862319F08C9180648C9388E38A95F1F7BC
:1001000000C08081862319F08C9180688C9388E3ED
:100110008A95F1F700C08CE18A95F1F70000089507
:10012000FC01DA011C928CE18A95F1F7000088E36A
:100130008A95F1F700C08081862311F081E08C93CD
:1001400088E38A95F1F700C08081862319F08C91AD
:1001500082608C9388E38A95F1F700C080818623C2
:1001600019F08C9184608C9388E38A95F1F700C034
:100170008081862319F08C9188608C9388E38A951E
:10018000F1F700C08081862319F08C9180618C93F7
:1001900088E38A95F1F700C08081862319F08C915D
:1001A00080628C9388E38A95F1F700C08081862372
:1001B00019F08C9180648C9388E38A95F1F700C0E4
:1001C0008081862319F08C9180688C9388E38A95CE
:1001D000F1F700C08CE18A95F1F700000895FC0169
:1001E0008081262F20958223808338E33A95F1F78A
:1001F00000C0842F992787FD909580FF03C0308130
:10020000362B02C030813223308338E33A95F1F740
:1002100000C081FF03C03081362B02C03081322301
:10022000308338E33A95F1F700C082FF03C0308194
:10023000362B02C030813223308338E33A95F1F710
:1002400000C083FF03C03081362B02C030813223CF
:10025000308338E33A95F1F700C084FF03C0308162
:10026000362B02C030813223308338E33A95F1F7E0
:1002700000C085FF03C03081362B02C0308132239D
:10028000308338E33A95F1F700C086FF03C08081E0
:10029000862B02C080818223808388E38A95F1F7D0
:1002A00000C047FF03C08081862B02C0808182236B
:1002B000808338E33A95F1F700C08081862B8083F4
:1002C00088E38A95F1F700C00895FF920F931F937A
:1002D000CF93DF938C01F62EEA0110926700109203
:1002E0006600E0916600F0916700EC0FFD1F4491FD
:1002F00040936800C8016F2D72DF80916600909175
:100300006700019690936700809366008091680073
:10031000882339F7DF91CF911F910F91FF900895B6
:10032000282F392FC90105C026E02A95F1F700C012
:1003300001970097C9F70895282F392FC90107C0E1
:10034000E7E8F3E13197F1F700C00000019700976B
:10035000B9F708950F931F93CF93DF93EC018B01AF
:100360002AE030E041E050E089B390E08170907085
:1003700084279527009711F020E030E0215030408D
:10038000121613068CF3009769F089E390E061E0A0
:1003900040E650E0C5DE8091600088831982F80154
:1003A00011821082DF91CF911F910F9108951F92BA
:1003B0000F920FB60F9211242F933F934F935F9399
:1003C0006F937F938F939F93AF93BF93EF93FF931D
:1003D00089E390E061E040E650E0A2DE80916000B9
:1003E0008E3629F481E690E064E670E0B3DF809118
:1003F00060008D3629F484E690E061E670E0AADFC3
:10040000FF91EF91BF91AF919F918F917F916F91EC
:100410005F914F913F912F910F900FBE0F901F90C2
:10042000189580E886BD16BCD99AD1988BB78061A3
:100430008BBF909A7894DA98D29ADB98D39A83B744
:10044000816083BF12BE22B78091610090916200EB
:1004500062B7409164005091650070E064177507C1
:100460003CF030E0281739071CF0DA98DB98EBCF26
:1004700022B7809161009091620030E0281739071F
:1004800014F4DB98DA9A22B78091640090916500A9
:1004900030E028173907BCF6DA98DB9AD4CFF89405
:0204A000FFCF8C
:0404A200AFFF0000A8
:00000001FF
