:1000000010C02AC029C028C027C026C025C024C0CF
:1000100023C022C021C020C01FC01EC01DC01CC0E4
:100020001BC011241FBECFE5D1E0DEBFCDBF10E065
:10003000A0E6B0E0E4E3F4E002C005900D92A4363F
:10004000B107D9F710E0A4E6B0E001C01D92A936CF
:10005000B107E1F783D1ECC1D3CFFC01DA011C92E7
:1000600080818623E9F78CE18A95F1F7000088E327
:100070008A95F1F700C08081862319F08C91816008
:100080008C9388E38A95F1F700C08081862319F06C
:100090008C9182608C9388E38A95F1F700C080810F
:1000A000862319F08C9184608C9388E38A95F1F70C
:1000B00000C08081862319F08C9188608C9388E33E
:1000C0008A95F1F700C08081862319F08C918061B8
:1000D0008C9388E38A95F1F700C08081862319F01C
:1000E0008C9180628C9388E38A95F1F700C08081BF
:1000F000862319F08C9180648C9388E38A95F1F7BC
:1001000000C08081862319F08C9180688C9388E3ED
:100110008A95F1F700C08CE18A95F1F70000089507
:10012000FC01DA011C928081862309F05BC08CE11E
:100130008A95F1F7000088E38A95F1F700C0808185
:10014000862311F081E08C9388E38A95F1F700C053
:100150008081862319F08C9182608C9388E38A9544
:10016000F1F700C08081862319F08C9184608C9314
:1001700088E38A95F1F700C08081862319F08C917D
:1001800088608C9388E38A95F1F700C0808186238C
:1001900019F08C9180618C9388E38A95F1F700C007
:1001A0008081862319F08C9180628C9388E38A95F4
:1001B000F1F700C08081862319F08C9180648C93C4
:1001C00088E38A95F1F700C08081862319F08C912D
:1001D00080688C9388E38A95F1F700C08CE18A955A
:1001E000F1F700000895FC018081262F20958223DD
:1001F000808338E33A95F1F700C0842F992787FD73
:10020000909580FF03C03081362B02C030813223AD
:10021000308338E33A95F1F700C081FF03C03081A5
:10022000362B02C030813223308338E33A95F1F720
:1002300000C082FF03C03081362B02C030813223E0
:10024000308338E33A95F1F700C083FF03C0308173
:10025000362B02C030813223308338E33A95F1F7F0
:1002600000C084FF03C03081362B02C030813223AE
:10027000308338E33A95F1F700C085FF03C0308141
:10028000362B02C030813223308338E33A95F1F7C0
:1002900000C086FF03C08081862B02C0808182233C
:1002A000808388E38A95F1F700C047FF03C080810F
:1002B000862B02C080818223808338E33A95F1F750
:1002C00000C08081862B808388E38A95F1F700C087
:1002D0000895FF920F931F93CF93DF938C01F62E17
:1002E000EA011092670010926600E0916600F091BA
:1002F0006700EC0FFD1F449140936800C8016F2D0B
:1003000072DF80916600909167000196909367007C
:100310008093660080916800882339F7DF91CF9140
:100320001F910F91FF900895282F392FC90105C003
:1003300026E02A95F1F700C001970097C9F70895C4
:10034000282F392FC90107C0E7E8F3E13197F1F70A
:1003500000C0000001970097B9F7089580E886BDB6
:1003600016BCD99AD198DA98D29ADB98D39A83B7E7
:10037000816083BF12BE22B78091610090916200BC
:1003800062B7409164005091650070E06417750792
:100390003CF030E0281739071CF0DB98DA9814C0DD
:1003A00022B7809161009091620030E028173907F0
:1003B0000CF4DA9A22B7809164009091650030E0E5
:1003C000281739070CF4DB9AC89906C089E390E036
:1003D00061E040E650E0A4DE809160008F3689F451
:1003E00089E390E061E040E650E09ADE80916000B1
:1003F00090E09093650080936400109262001092E8
:10040000610080916000803709F0B5CF89E390E00A
:1004100061E040E650E084DE8091600090E09093DF
:100420006200809361001092650010926400A3CF77
:04043000F894FFCF6E
:04043400AFFF000016
:00000001FF
