:1000000010C02AC029C028C027C026C025C024C0CF
:1000100023C022C021C020C01FC01EC01DC01CC0E4
:100020001BC011241FBECFE5D1E0DEBFCDBF10E065
:10003000A0E6B0E0E2EBF4E002C005900D92A2363B
:10004000B107D9F710E0A2E6B0E001C01D92A936D1
:10005000B107E1F7ECD12BC2D3CFFC01DA011C923E
:1000600080818623E9F789EF90E00197F1F700C0DE
:10007000000083EF91E00197F1F700C0000080815C
:10008000862319F08C9181608C9383EF91E0019726
:10009000F1F700C000008081862319F08C91826006
:1000A0008C9383EF91E00197F1F700C0000080810D
:1000B000862319F08C9184608C9383EF91E00197F3
:1000C000F1F700C000008081862319F08C918860D0
:1000D0008C9383EF91E00197F1F700C000008081DD
:1000E000862319F08C9180618C9383EF91E00197C6
:1000F000F1F700C000008081862319F08C918062A6
:100100008C9383EF91E00197F1F700C000008081AC
:10011000862319F08C9180648C9383EF91E0019792
:10012000F1F700C000008081862319F08C9180686F
:100130008C9383EF91E00197F1F700C0000089EF05
:1001400090E00197F1F700C000000895FC01DA018A
:100150001C9289EF90E00197F1F700C0000083EF57
:1001600091E00197F1F700C000008081862311F033
:1001700081E08C9383EF91E00197F1F700C00000DC
:100180008081862319F08C9182608C9383EF91E0BB
:100190000197F1F700C000008081862319F08C914F
:1001A00084608C9383EF91E00197F1F700C0000029
:1001B0008081862319F08C9188608C9383EF91E085
:1001C0000197F1F700C000008081862319F08C911F
:1001D00080618C9383EF91E00197F1F700C00000FC
:1001E0008081862319F08C9180628C9383EF91E05B
:1001F0000197F1F700C000008081862319F08C91EF
:1002000080648C9383EF91E00197F1F700C00000C8
:100210008081862319F08C9180688C9383EF91E024
:100220000197F1F700C0000089EF90E00197F1F726
:1002300000C000000895FC018081262F20958223B4
:10024000808383EF91E00197F1F700C00000842FD5
:10025000992787FD909580FF03C03081362B02C01F
:10026000308132233083A3EFB1E01197F1F700C062
:10027000000081FF03C03081362B02C03081322361
:100280003083A3EFB1E01197F1F700C0000082FFC7
:1002900003C03081362B02C0308132233083A3EF7C
:1002A000B1E01197F1F700C0000083FF03C0308177
:1002B000362B02C0308132233083A3EFB1E0119797
:1002C000F1F700C0000084FF03C03081362B02C06C
:1002D000308132233083A3EFB1E01197F1F700C0F2
:1002E000000085FF03C03081362B02C030813223ED
:1002F0003083A3EFB1E01197F1F700C0000086FF53
:1003000003C08081862B02C080818223808383EF9B
:1003100091E00197F1F700C0000047FF03C0808122
:10032000862B02C0808182238083A3EFB1E01197E6
:10033000F1F700C000008081862B808383EF91E07D
:100340000197F1F700C000000895FF920F931F93EB
:10035000CF93DF938C01F62EEA0110926700109282
:100360006600E0916600F0916700EC0FFD1F44917C
:1003700040936800C8016F2D5EDF80916600909108
:1003800067000196909367008093660080916800F3
:10039000882339F7DF91CF911F910F91FF90089536
:1003A000282F392FC90105C026E02A95F1F700C092
:1003B00001970097C9F70895282F392FC90107C061
:1003C000E7E8F3E13197F1F700C0000001970097EB
:1003D000B9F708950F931F93CF93DF93EC018B012F
:1003E0002AE030E041E050E089B390E08170907005
:1003F00084279527009711F020E030E0215030400D
:10040000121613068CF3009769F089E390E061E01F
:1004100040E650E09BDE8091600088831982F801FD
:1004200011821082DF91CF911F910F91089580E882
:1004300086BD16BCD99AD198DA98D29ADB98D39A0D
:100440008FBD8FB580628FBD82E18EBD8FEF90E052
:1004500095BD84BDDD98D59ADE98D69A1BBC1ABC92
:1004600089E390E061E040E650E0F7DD80916000D4
:10047000803769F489E390E061E040E650E0EDDD2B
:100480008091600090E09BBD8ABD19BC18BC809132
:1004900060008F3629F789E390E061E040E650E0A4
:1004A000DCDD8091600090E099BD88BDD7CFF894E5
:0204B000FFCF7C
:0204B200AF0099
:00000001FF
