:1000000010C02AC029C028C027C026C025C024C0CF
:1000100023C022C021C020C01FC01EC01DC01CC0E4
:100020001BC011241FBECFE5D1E0DEBFCDBF10E065
:10003000A0E6B0E0E2E6F4E002C005900D92A23640
:10004000B107D9F710E0A2E6B0E001C01D92A936D1
:10005000B107E1F7ACD103C2D3CFFC01DA011C92A6
:1000600080818623E9F78CE18A95F1F7000088E327
:100070008A95F1F700C08081862319F08C91816008
:100080008C9388E38A95F1F700C08081862319F06C
:100090008C9182608C9388E38A95F1F700C080810F
:1000A000862319F08C9184608C9388E38A95F1F70C
:1000B00000C08081862319F08C9188608C9388E33E
:1000C0008A95F1F700C08081862319F08C918061B8
:1000D0008C9388E38A95F1F700C08081862319F01C
:1000E0008C9180628C9388E38A95F1F700C08081BF
:1000F000862319F08C9180648C9388E38A95F1F7BC
:1001000000C08081862319F08C9180688C9388E3ED
:100110008A95F1F700C08CE18A95F1F70000089507
:10012000FC01DA011C928CE18A95F1F7000088E36A
:100130008A95F1F700C08081862311F081E08C93CD
:1001400088E38A95F1F700C08081862319F08C91AD
:1001500082608C9388E38A95F1F700C080818623C2
:1001600019F08C9184608C9388E38A95F1F700C034
:100170008081862319F08C9188608C9388E38A951E
:10018000F1F700C08081862319F08C9180618C93F7
:1001900088E38A95F1F700C08081862319F08C915D
:1001A00080628C9388E38A95F1F700C08081862372
:1001B00019F08C9180648C9388E38A95F1F700C0E4
:1001C0008081862319F08C9180688C9388E38A95CE
:1001D000F1F700C08CE18A95F1F700000895FC0169
:1001E0008081262F20958223808338E33A95F1F78A
:1001F00000C0842F992787FD909580FF03C0308130
:10020000362B02C030813223308338E33A95F1F740
:1002100000C081FF03C03081362B02C03081322301
:10022000308338E33A95F1F700C082FF03C0308194
:10023000362B02C030813223308338E33A95F1F710
:1002400000C083FF03C03081362B02C030813223CF
:10025000308338E33A95F1F700C084FF03C0308162
:10026000362B02C030813223308338E33A95F1F7E0
:1002700000C085FF03C03081362B02C0308132239D
:10028000308338E33A95F1F700C086FF03C08081E0
:10029000862B02C080818223808388E38A95F1F7D0
:1002A00000C047FF03C08081862B02C0808182236B
:1002B000808338E33A95F1F700C08081862B8083F4
:1002C00088E38A95F1F700C00895FF920F931F937A
:1002D000CF93DF938C01F62EEA0110926700109203
:1002E0006600E0916600F0916700EC0FFD1F4491FD
:1002F00040936800C8016F2D72DF80916600909175
:100300006700019690936700809366008091680073
:10031000882339F7DF91CF911F910F91FF900895B6
:10032000282F392FC90105C026E02A95F1F700C012
:1003300001970097C9F70895282F392FC90107C0E1
:10034000E7E8F3E13197F1F700C00000019700976B
:10035000B9F708950F931F93CF93DF93EC018B01AF
:100360002AE030E041E050E089B390E08170907085
:1003700084279527009711F020E030E0215030408D
:10038000121613068CF3009769F089E390E061E0A0
:1003900040E650E0C5DE8091600088831982F80154
:1003A00011821082DF91CF911F910F91089580E803
:1003B00086BD16BCD99AD198DA98D29ADB98D39A8E
:1003C0008FBD8FB580628FBD82E18EBD8CE993E6D3
:1003D00095BD84BDDD98D59ADE98D69A1BBC1ABC13
:1003E00089E390E061E040E650E037DE8091600014
:1003F000803781F489E390E061E040E650E02DDE53
:100400008091600090E064E670E017D09BBD8ABDEB
:1004100019BC18BC809160008F3611F789E390E019
:1004200061E040E650E019DE8091600090E064E613
:1004300070E003D099BD88BDD1CF5527002480FF3F
:1004400002C0060E571F660F771F6115710521F058
:1004500096958795009799F7952F802D0895F89494
:02046000FFCFCC
:02046200AF00E9
:00000001FF
