:1000000010C01FC01EC01DC01CC01BC01AC019C01C
:1000100018C017C016C015C014C013C012C011C03C
:1000200010C011241FBECFE5D1E0DEBFCDBF10E070
:10003000A0E6B0E001C01D92AA36B107E1F735D1C4
:10004000B6C1DECFFC01DA011C9280818623E9F77C
:100050008CE18A95F1F7000088E38A95F1F700C0FA
:100060008081862319F08C9181608C9388E38A9536
:10007000F1F700C08081862319F08C9182608C9307
:1000800088E38A95F1F700C08081862319F08C916E
:1000900084608C9388E38A95F1F700C08081862381
:1000A00019F08C9188608C9388E38A95F1F700C0F1
:1000B0008081862319F08C9180618C9388E38A95E6
:1000C000F1F700C08081862319F08C9180628C93B7
:1000D00088E38A95F1F700C08081862319F08C911E
:1000E00080648C9388E38A95F1F700C08081862331
:1000F00019F08C9180688C9388E38A95F1F700C0A1
:100100008CE18A95F1F700000895FC018081262F8B
:1001100020958223808338E33A95F1F700C0842F3D
:10012000992787FD909580FF03C03081362B02C050
:1001300030813223308338E33A95F1F700C081FFF4
:1001400003C03081362B02C030813223308338E344
:100150003A95F1F700C082FF03C03081362B02C010
:1001600030813223308338E33A95F1F700C083FFC2
:1001700003C03081362B02C030813223308338E314
:100180003A95F1F700C084FF03C03081362B02C0DE
:1001900030813223308338E33A95F1F700C085FF90
:1001A00003C03081362B02C030813223308338E3E4
:1001B0003A95F1F700C086FF03C08081862B02C00C
:1001C00080818223808388E38A95F1F700C047FF0E
:1001D00003C08081862B02C080818223808338E324
:1001E0003A95F1F700C08081862B808388E38A9559
:1001F000F1F700C038E33A95F1F700C00895FF9297
:100200000F931F93CF93DF938C01F62EEA01109288
:10021000680010926700E0916700F0916800EC0FB1
:10022000FD1F449140936900C8016F2D6EDF8091DE
:100230006700909168000196909368008093670032
:1002400080916900882339F7DF91CF911F910F9139
:10025000FF900895FF920F931F93CF93DF938C012C
:10026000F62EEA011092660010926500E09165009A
:10027000F0916600EC0FFD1FC8016F2D408145DF36
:10028000809165009091660001969093660080933E
:1002900065008C0F9D1FFC018081882339F7DF9159
:1002A000CF911F910F91FF900895CF93DF9380E836
:1002B00086BD16BCD99AD198109263001092620044
:1002C000D2E0C7E889E390E061E044E650E0BADEBE
:1002D000809164008733B1F713B8D7B9C6B9369A9D
:1002E0003699FECF84B18093610085B18093600020
:1002F000D19A8BE390E062E041E307DF8FE493EC77
:100300000197F1F700C000008BE390E062E042E368
:10031000FCDE8FE493EC0197F1F700C000008BE363
:1003200090E062E043E3F1DE8FE493EC0197F1F7B4
:1003300000C000008BE390E062E044E3E6DE8FE47F
:1003400093EC0197F1F700C000008BE390E062E0CE
:1003500040916100DADE8FE493EC0197F1F700C081
:1003600000008BE390E062E040916000CEDE8FE41D
:1003700093EC0197F1F700C000008BE390E062E09E
:1003800040916100C2DE8FE493EC0197F1F700C069
:1003900000008BE390E062E040916000B6DE8FE405
:1003A00093EC0197F1F700C00000D1988BCFF8943F
:0203B000FFCF7D
:00000001FF
