:1000000010C01FC01EC01DC01CC01BC01AC019C01C
:1000100018C017C016C015C014C013C012C011C03C
:1000200010C011241FBECFE5D1E0DEBFCDBF10E070
:10003000A0E6B0E001C01D92AA36B107E1F761D198
:10004000E2C1DECFFC01DA011C9280818623E9F750
:1000500089EF90E00197F1F700C0000083EF91E095
:100060000197F1F700C000008081862319F08C9180
:1000700081608C9383EF91E00197F1F700C000005D
:100080008081862319F08C9182608C9383EF91E0BC
:100090000197F1F700C000008081862319F08C9150
:1000A00084608C9383EF91E00197F1F700C000002A
:1000B0008081862319F08C9188608C9383EF91E086
:1000C0000197F1F700C000008081862319F08C9120
:1000D00080618C9383EF91E00197F1F700C00000FD
:1000E0008081862319F08C9180628C9383EF91E05C
:1000F0000197F1F700C000008081862319F08C91F0
:1001000080648C9383EF91E00197F1F700C00000C9
:100110008081862319F08C9180688C9383EF91E025
:100120000197F1F700C0000089EF90E00197F1F727
:1001300000C000000895FC018081262F20958223B5
:10014000808383EF91E00197F1F700C00000842FD6
:10015000992787FD909580FF03C03081362B02C020
:10016000308132233083A3EFB1E01197F1F700C063
:10017000000081FF03C03081362B02C03081322362
:100180003083A3EFB1E01197F1F700C0000082FFC8
:1001900003C03081362B02C0308132233083A3EF7D
:1001A000B1E01197F1F700C0000083FF03C0308178
:1001B000362B02C0308132233083A3EFB1E0119798
:1001C000F1F700C0000084FF03C03081362B02C06D
:1001D000308132233083A3EFB1E01197F1F700C0F3
:1001E000000085FF03C03081362B02C030813223EE
:1001F0003083A3EFB1E01197F1F700C0000086FF54
:1002000003C08081862B02C080818223808383EF9C
:1002100091E00197F1F700C0000047FF03C0808123
:10022000862B02C0808182238083A3EFB1E01197E7
:10023000F1F700C000008081862B808383EF91E07E
:100240000197F1F700C00000A3EFB1E01197F1F7BB
:1002500000C000000895FF920F931F93CF93DF9388
:100260008C01F62EEA011092680010926700E0916E
:100270006700F0916800EC0FFD1F44914093690006
:10028000C8016F2D58DF809167009091680001963A
:10029000909368008093670080916900882339F704
:1002A000DF91CF911F910F91FF900895FF920F93CF
:1002B0001F93CF93DF938C01F62EEA011092660014
:1002C00010926500E0916500F0916600EC0FFD1F53
:1002D000C8016F2D40812FDF8091650090916600ED
:1002E000019690936600809365008C0F9D1FFC0122
:1002F0008081882339F7DF91CF911F910F91FF9073
:100300000895CF93DF9380E886BD16BCD99AD19823
:100310001092630010926200D2E0C7E889E390E097
:1003200061E044E650E08EDE809164008437B1F7EE
:1003300013B8D7B9C6B9369A3699FECF84B180932F
:10034000610085B180936000D19A8BE390E062E018
:1003500041E3F1DE8FE493EC0197F1F700C0000078
:100360008BE390E062E042E3E6DE8FE493EC0197FA
:10037000F1F700C000008BE390E062E043E3DBDED6
:100380008FE493EC0197F1F700C000008BE390E05D
:1003900062E044E3D0DE8FE493EC0197F1F700C014
:1003A00000008BE390E062E040916100C4DE8FE4E6
:1003B00093EC0197F1F700C000008BE390E062E05E
:1003C00040916000B8DE8FE493EC0197F1F700C034
:1003D00000008BE390E062E040916100ACDE8FE4CE
:1003E00093EC0197F1F700C000008BE390E062E02E
:1003F00040916000A0DE8FE493EC0197F1F700C01C
:0A0400000000D1988BCFF894FFCFD5
:00000001FF
