:1000000010C01FC01EC01DC01CC01BC01AC019C01C
:1000100018C017C016C015C014C013C012C011C03C
:1000200010C011241FBECFE5D1E0DEBFCDBF10E070
:10003000A0E6B0E001C01D92AC36B107E1F761D196
:10004000F0C1DECFFC01DA011C9280818623E9F742
:1000500089EF90E00197F1F700C0000083EF91E095
:100060000197F1F700C000008081862319F08C9180
:1000700081608C9383EF91E00197F1F700C000005D
:100080008081862319F08C9182608C9383EF91E0BC
:100090000197F1F700C000008081862319F08C9150
:1000A00084608C9383EF91E00197F1F700C000002A
:1000B0008081862319F08C9188608C9383EF91E086
:1000C0000197F1F700C000008081862319F08C9120
:1000D00080618C9383EF91E00197F1F700C00000FD
:1000E0008081862319F08C9180628C9383EF91E05C
:1000F0000197F1F700C000008081862319F08C91F0
:1001000080648C9383EF91E00197F1F700C00000C9
:100110008081862319F08C9180688C9383EF91E025
:100120000197F1F700C0000089EF90E00197F1F727
:1001300000C000000895FC018081262F20958223B5
:10014000808383EF91E00197F1F700C00000842FD6
:10015000992787FD909580FF03C03081362B02C020
:10016000308132233083A3EFB1E01197F1F700C063
:10017000000081FF03C03081362B02C03081322362
:100180003083A3EFB1E01197F1F700C0000082FFC8
:1001900003C03081362B02C0308132233083A3EF7D
:1001A000B1E01197F1F700C0000083FF03C0308178
:1001B000362B02C0308132233083A3EFB1E0119798
:1001C000F1F700C0000084FF03C03081362B02C06D
:1001D000308132233083A3EFB1E01197F1F700C0F3
:1001E000000085FF03C03081362B02C030813223EE
:1001F0003083A3EFB1E01197F1F700C0000086FF54
:1002000003C08081862B02C080818223808383EF9C
:1002100091E00197F1F700C0000047FF03C0808123
:10022000862B02C0808182238083A3EFB1E01197E7
:10023000F1F700C000008081862B808383EF91E07E
:100240000197F1F700C00000A3EFB1E01197F1F7BB
:1002500000C000000895FF920F931F93CF93DF9388
:100260008C01F62EEA0110926A0010926900E0916A
:100270006900F0916A00EC0FFD1F449140936B0000
:10028000C8016F2D58DF8091690090916A00019636
:1002900090936A008093690080916B00882339F7FE
:1002A000DF91CF911F910F91FF900895FF920F93CF
:1002B0001F93CF93DF938C01F62EEA011092680012
:1002C00010926700E0916700F0916800EC0FFD1F4D
:1002D000C8016F2D40812FDF8091670090916800E9
:1002E000019690936800809367008C0F9D1FFC011E
:1002F0008081882339F7DF91CF911F910F91FF9073
:1003000008951F93CF93DF9380E886BD16BCD99ADA
:10031000D198109265001092640016E0C7E8D7E00B
:1003200089E390E061E046E650E08CDE8091660073
:100330008337B1F713B817B9C6B9369A3699FECFD5
:1003400084B18093630085B18093620013B8D7B9FC
:10035000C6B9369A3699FECF84B18093610085B1D3
:1003600080936000D19A8BE390E062E041E3E3DEAA
:100370008FE493EC0197F1F700C000008BE390E06D
:1003800062E042E3D8DE8FE493EC0197F1F700C01E
:1003900000008BE390E062E043E3CDDE8FE493EC7A
:1003A0000197F1F700C000008BE390E062E044E3C6
:1003B000C2DE8FE493EC0197F1F700C000008BE3FD
:1003C00090E062E040916300B6DE8FE493EC019729
:1003D000F1F700C000008BE390E062E04091620022
:1003E000AADE8FE493EC0197F1F700C000008BE3E5
:1003F00090E062E0409161009EDE8FE493EC019713
:10040000F1F700C000008BE390E062E040916000F3
:1004100092DE8FE493EC0197F1F700C00000D198D1
:060420007FCFF894FFCF2E
:00000001FF
