:1000000010C01FC01EC01DC01CC01BC01AC019C01C
:1000100018C017C016C015C014C013C012C011C03C
:1000200010C011241FBECFE5D1E0DEBFCDBF10E070
:10003000A0E6B0E001C01D92AC36B107E1F735D1C2
:10004000C4C1DECFFC01DA011C9280818623E9F76E
:100050008CE18A95F1F7000088E38A95F1F700C0FA
:100060008081862319F08C9181608C9388E38A9536
:10007000F1F700C08081862319F08C9182608C9307
:1000800088E38A95F1F700C08081862319F08C916E
:1000900084608C9388E38A95F1F700C08081862381
:1000A00019F08C9188608C9388E38A95F1F700C0F1
:1000B0008081862319F08C9180618C9388E38A95E6
:1000C000F1F700C08081862319F08C9180628C93B7
:1000D00088E38A95F1F700C08081862319F08C911E
:1000E00080648C9388E38A95F1F700C08081862331
:1000F00019F08C9180688C9388E38A95F1F700C0A1
:100100008CE18A95F1F700000895FC018081262F8B
:1001100020958223808338E33A95F1F700C0842F3D
:10012000992787FD909580FF03C03081362B02C050
:1001300030813223308338E33A95F1F700C081FFF4
:1001400003C03081362B02C030813223308338E344
:100150003A95F1F700C082FF03C03081362B02C010
:1001600030813223308338E33A95F1F700C083FFC2
:1001700003C03081362B02C030813223308338E314
:100180003A95F1F700C084FF03C03081362B02C0DE
:1001900030813223308338E33A95F1F700C085FF90
:1001A00003C03081362B02C030813223308338E3E4
:1001B0003A95F1F700C086FF03C08081862B02C00C
:1001C00080818223808388E38A95F1F700C047FF0E
:1001D00003C08081862B02C080818223808338E324
:1001E0003A95F1F700C08081862B808388E38A9559
:1001F000F1F700C038E33A95F1F700C00895FF9297
:100200000F931F93CF93DF938C01F62EEA01109288
:100210006A0010926900E0916900F0916A00EC0FA9
:10022000FD1F449140936B00C8016F2D6EDF8091DC
:10023000690090916A00019690936A00809369002A
:1002400080916B00882339F7DF91CF911F910F9137
:10025000FF900895FF920F931F93CF93DF938C012C
:10026000F62EEA011092680010926700E091670094
:10027000F0916800EC0FFD1FC8016F2D408145DF34
:100280008091670090916800019690936800809338
:1002900067008C0F9D1FFC018081882339F7DF9157
:1002A000CF911F910F91FF9008951F93CF93DF93EC
:1002B00080E886BD16BCD99AD1981092650010923C
:1002C000640016E0C7E8D7E089E390E061E046E625
:1002D00050E0B8DE809166008633B1F713B817B9E5
:1002E000C6B9369A3699FECF84B18093630085B142
:1002F0008093620013B8D7B9C6B9369A3699FECF43
:1003000084B18093610085B180936000D19A8BE3C2
:1003100090E062E041E3F9DE8FE493EC0197F1F7BE
:1003200000C000008BE390E062E042E3EEDE8FE489
:1003300093EC0197F1F700C000008BE390E062E0DE
:1003400043E3E3DE8FE493EC0197F1F700C0000094
:100350008BE390E062E044E3D8DE8FE493EC019716
:10036000F1F700C000008BE390E062E04091630091
:10037000CCDE8FE493EC0197F1F700C000008BE333
:1003800090E062E040916200C0DE8FE493EC019760
:10039000F1F700C000008BE390E062E04091610063
:1003A000B4DE8FE493EC0197F1F700C000008BE31B
:1003B00090E062E040916000A8DE8FE493EC01974A
:0E03C000F1F700C00000D1987FCFF894FFCF76
:00000001FF
