:1000000010C02AC029C028C027C026C025C024C0CF
:1000100023C022C021C020C01FC01EC01DC01CC0E4
:100020001BC011241FBECFE5D1E0DEBFCDBF10E065
:10003000A0E6B0E0E6E3F3E002C005900D92A23640
:10004000B107D9F710E0A2E6B0E001C01D92A736D3
:10005000B107E1F720D16DC1D3CFFC01DA011C92C9
:1000600080818623E9F78CE18A95F1F7000088E327
:100070008A95F1F700C08081862319F08C91816008
:100080008C9388E38A95F1F700C08081862319F06C
:100090008C9182608C9388E38A95F1F700C080810F
:1000A000862319F08C9184608C9388E38A95F1F70C
:1000B00000C08081862319F08C9188608C9388E33E
:1000C0008A95F1F700C08081862319F08C918061B8
:1000D0008C9388E38A95F1F700C08081862319F01C
:1000E0008C9180628C9388E38A95F1F700C08081BF
:1000F000862319F08C9180648C9388E38A95F1F7BC
:1001000000C08081862319F08C9180688C9388E3ED
:100110008A95F1F700C08CE18A95F1F70000089507
:10012000FC018081262F20958223808338E33A9535
:10013000F1F700C0842F992787FD909580FF03C0B9
:100140003081362B02C030813223308338E33A9538
:10015000F1F700C081FF03C03081362B02C030812F
:100160003223308338E33A95F1F700C082FF03C0B1
:100170003081362B02C030813223308338E33A9508
:10018000F1F700C083FF03C03081362B02C03081FD
:100190003223308338E33A95F1F700C084FF03C07F
:1001A0003081362B02C030813223308338E33A95D8
:1001B000F1F700C085FF03C03081362B02C03081CB
:1001C0003223308338E33A95F1F700C086FF03C04D
:1001D0008081862B02C080818223808388E38A9578
:1001E000F1F700C047FF03C08081862B02C08081E9
:1001F0008223808338E33A95F1F700C08081862B13
:10020000808388E38A95F1F700C00895FF920F93E9
:100210001F93CF93DF938C01F62EEA0110926500B5
:1002200010926400E0916400F0916500EC0FFD1FF6
:10023000449140936600C8016F2D72DF8091640085
:100240009091650001969093650080936400809181
:100250006600882339F7DF91CF911F910F91FF90AE
:100260000895282F392FC90105C026E02A95F1F7F6
:1002700000C001970097C9F70895282F392FC901A9
:1002800007C0E7E8F3E13197F1F700C000000197FC
:100290000097B9F7089580E886BD16BCD99AD19821
:1002A000DA98D29ADB98D39A89E390E061E040E64D
:1002B00050E0D3DE80916000992787FD9095C0972C
:1002C0009093630080936200809160008D36B9F452
:1002D000DA98DB9A89E390E061E040E650E0BDDE29
:1002E00080916000992787FD9095C0979093630057
:1002F0008093620088EE93E0C0DFDB98DA9880910B
:100300006000803311F4DB98DA988091620090915C
:1003100063008130910511F4DB98DA9A80916200D4
:10032000909163008230910509F0BECFDA98DB9A94
:06033000BBCFF894FFCFE3
:02033600300095
:00000001FF
