:1000000010C02AC0A7C128C027C026C025C024C050
:1000100023C022C021C020C01FC01EC01DC01CC0E4
:100020001BC011241FBECFE5D1E0DEBFCDBF10E065
:10003000A0E6B0E0ECE0F4E002C005900D92A4363A
:10004000B107D9F710E0A4E6B0E001C01D92A936CF
:10005000B107E1F7B1D1D8C1D3CFFC01DA011C92CD
:1000600080818623E9F78CE18A95F1F7000088E327
:100070008A95F1F700C08081862319F08C91816008
:100080008C9388E38A95F1F700C08081862319F06C
:100090008C9182608C9388E38A95F1F700C080810F
:1000A000862319F08C9184608C9388E38A95F1F70C
:1000B00000C08081862319F08C9188608C9388E33E
:1000C0008A95F1F700C08081862319F08C918061B8
:1000D0008C9388E38A95F1F700C08081862319F01C
:1000E0008C9180628C9388E38A95F1F700C08081BF
:1000F000862319F08C9180648C9388E38A95F1F7BC
:1001000000C08081862319F08C9180688C9388E3ED
:100110008A95F1F700C08CE18A95F1F70000089507
:10012000FC01DA011C928CE18A95F1F7000088E36A
:100130008A95F1F700C08081862311F081E08C93CD
:1001400088E38A95F1F700C08081862319F08C91AD
:1001500082608C9388E38A95F1F700C080818623C2
:1001600019F08C9184608C9388E38A95F1F700C034
:100170008081862319F08C9188608C9388E38A951E
:10018000F1F700C08081862319F08C9180618C93F7
:1001900088E38A95F1F700C08081862319F08C915D
:1001A00080628C9388E38A95F1F700C08081862372
:1001B00019F08C9180648C9388E38A95F1F700C0E4
:1001C0008081862319F08C9180688C9388E38A95CE
:1001D000F1F700C08CE18A95F1F700000895FC0169
:1001E0008081262F20958223808338E33A95F1F78A
:1001F00000C0842F992787FD909580FF03C0308130
:10020000362B02C030813223308338E33A95F1F740
:1002100000C081FF03C03081362B02C03081322301
:10022000308338E33A95F1F700C082FF03C0308194
:10023000362B02C030813223308338E33A95F1F710
:1002400000C083FF03C03081362B02C030813223CF
:10025000308338E33A95F1F700C084FF03C0308162
:10026000362B02C030813223308338E33A95F1F7E0
:1002700000C085FF03C03081362B02C0308132239D
:10028000308338E33A95F1F700C086FF03C08081E0
:10029000862B02C080818223808388E38A95F1F7D0
:1002A00000C047FF03C08081862B02C0808182236B
:1002B000808338E33A95F1F700C08081862B8083F4
:1002C00088E38A95F1F700C00895FF920F931F937A
:1002D000CF93DF938C01F62EEA0110926700109203
:1002E0006600E0916600F0916700EC0FFD1F4491FD
:1002F00040936800C8016F2D72DF80916600909175
:100300006700019690936700809366008091680073
:10031000882339F7DF91CF911F910F91FF900895B6
:10032000282F392FC90105C026E02A95F1F700C012
:1003300001970097C9F70895282F392FC90107C0E1
:10034000E7E8F3E13197F1F700C00000019700976B
:10035000B9F708951F920F920FB60F9211242F93A1
:100360003F934F935F936F937F938F939F93AF933D
:10037000BF93EF93FF9389E390E061E040E650E0A4
:10038000CFDE809160008D3631F489E390E061E04A
:1003900040E650E062DEFF91EF91BF91AF919F91F7
:1003A0008F917F916F915F914F913F912F910F901E
:1003B0000FBE0F901F90189580E886BD16BCD99A85
:1003C000D1988BB780618BBF909A7894DA98D29A43
:1003D000DB98D39A83B7816083BF12BE22B7809126
:1003E00061009091620030E0281739071CF4DA9818
:1003F000DB9A02C0DB98DA988091600090E09093DD
:0C040000620080936100EACFF894FFCF07
:04040C0096960000C0
:00000001FF
